:030000000200817A
:10000300EB30E11320E00EC083C08289828A83E053
:10001300D082D08322E3226405700EC083C082891C
:0B002300828A8393D082D08322E722E0
:10002E00E92582C9C582EA3583CAC583120003A9B0
:04003E0082AA8322ED
:04004200110301465F
:0600460009B900010A22C5
:10004C00EFB40A077F0D12004C7F0A3099FDC2995C
:03005C008F992257
:10005F00D2D51200426007FFFE12004C80F420D56B
:0D006F00057E007F01227F0A12004C80F404
:05007C00C2D502006185
:10008100758111E4787FF6D8FD75892075884075F2
:0B0091009852758DE875A0FF0201DF9A
:05009C008F05ED60037B
:0400A1001D80FA22A2
:1000A50075F004EF23D5F0FC540F4410F5807580EE
:1000B50000EF540F4410F5807580007F0A12009CF4
:0100C5002218
:1000C6008B088A09890A8D0BE50BB40800E45001F8
:1000D60004FBE50BB40001D3E4400104FFEB5F60D1
:1000E6000EE50B75F008A4547F4440FF1200A57579
:1000F6000C00AB08AA09A90A758300850C821200B8
:100106002EFF120156050CE50CB408E6E4FF1201B9
:0201160079224C
:100118007580137580037F3212009C75801375807B
:10012800037F0112009C75801375800312009C7573
:10013800801275800212009C7F281200A57F0C1285
:0801480000A57F061200A522AC
:060150007F011200A52250
:1001560075F004EF23D5F0FC540F4490F5805480DD
:10016600F580EF540F4490F5805480F5807F0A1295
:03017600009C22C8
:08017900EF4480FF1200A522F3
:060181007F021200A5221E
:0D0187008B0D8A0E890F8D10E510B4010557
:0A019400E4FF120179E510B4020542
:0A019E007F40120179E510B403055B
:0A01A8007F10120179E510B4040580
:1001B2007F50120179AB0DAA0EA90F12000360172E
:1001C200AB0DAA0EA90F050FE50F7002050E120066
:0801D20003FF12015680DE223A
:0501DA004A44535200ED
:0A01DF007B057A0179DA12007C2218
:00000001FF
